:1003C900C0F9A4B0999282F880904079243019122A
:0E03D900127800129CC6010204081020408019
:0404360002080000B8
:05043000007F19DFFE52
:0104350022A4
:0A04250000007F167E80DEFEDFFC83
:01042F0022AA
:10040000D2A5C2A6D2A7C2B6E4F580C2A5C2A6D222
:07041000A7C2B67580FF22B0
:10039100C2A5D2A6D2A7C2B6E4F580D2A5D2A6D272
:1003A100A7C2B6ED9003C993F580C2A5D2A6D2A784
:1003B100C2B6EF9003DF93F580120425D2A5D2A631
:0803C100D2A7C2B67580FF222D
:1003E700E4FDFCD290120430C2901204300DBD001F
:0803F700010CED64084C70EBF1
:0103FF0022DB
:0E041700538EBF53890FE4F58BF58DC28F22F3
:10023D001204001204171203E7D28E309103308F8F
:10024D00FAC28E308F0AC28F7508037509E78025B3
:10025D00AF8DEFFEAD8BEDFFAC06E412010E7B72A0
:10026D007A1C7997783C1200031201478E088F098A
:10027D00E4F58BF58DAE08AF097C007D0A1201C83F
:10028D008E088F09E4F50AF50BC3E50B9414E50A06
:10029D00940050A2AE08AF097C037DE81201DAADDF
:1002AD00077F04120391AE08AF097C007D64120133
:1002BD00DA7C007D0A1201DA7F05120391AE08AFD8
:1002CD00097C007D641201DA7E007F0ACFCDCFCE8E
:1002DD00CCCE1201DAEF240AFD7F06120391AE088F
:1002ED00AF097C007D0A1201DA7F07120391050B1D
:0802FD00E50B7095050A8091E4
:10000300EC4D6011E8497017ED33EC3304600DE4F7
:10001300FCFFFEFD22E933E8330470F80201B3125A
:10002300017E58046009E4CC24815006285009025B
:1000330001BD2840030201BAC0E0EB4A7044B98015
:1000430006D0E0FB0201A9EF4E701CBD8008EBFF58
:10005300EAFEE9FD80EBE98DF0A4FEE5F00200EC99
:10006300E9CDF9EAFEEBFFEF89F0A4FCE5F0CE89D8
:10007300F0A42EFFE435F0CD89F0A42DFEE435F095
:100083008067EF4E7005BD80D780C3EF8BF0A4ACC3
:10009300F0EE8BF0A42CFCE435F0F8EF8AF0A42CFE
:1000A300E5F038FCE433CB8DF0A42CFCE5F03BF811
:1000B300EE8AF0A42CFCE5F038F8E433CF89F0A401
:1000C3002CFCE5F038CF3400CE89F0A42FFFE5F007
:1000D3003EFEE433C98DF0A42EFEE5F039CD8AF05F
:1000E300A42FFFE5F03EFEE43DFD33D0E0FB5007D7
:1000F3000BBB000F0201BDEC2CFCEF33FFEE33FE14
:06010300ED33FD02019541
:1001090075F020800E75F010800575F0087D007E71
:10011900007F003392D530D50312022FEC33401003
:10012900EF33FFEE33FEED33FDEC33FCD5F0ED227A
:0E013900E5F0247EA2D513CC92E7CDCEFF22B6
:10014700EDD2E7CD33EC3392D524814006E4FFFEB0
:10015700FDFC22FCE4CFCECDCC24E0501174FF800F
:10016700EDC3CC13CCCD13CDCE13CECF13CF0470AC
:07017700F030D5DE02022F7B
:10017E00E9D2E7C933E833F892D5EDD2E7CD33ECC7
:07018E0033FC5002B2D52240
:10019500EC30E7100FBF000C0EBE00080DBD0004CB
:1001A5000BEB6014A2D5EB13FCED92E7FD2274FF77
:1001B500FCFDFEFF22E480F8A2D574FF13FC7D80D0
:0301C500E480EFE4
:03000000020305F3
:0C030500787FE4F6D8FD75810B02034CF4
:1001C800EF8DF0A4A8F0CF8CF0A428CE8DF0A42E4B
:0201D800FE2205
:1001DA00BC000BBE0029EF8DF084FFADF022E4CC09
:1001EA00F875F008EF2FFFEE33FEEC33FCEE9DECD2
:1001FA00984005FCEE9DFE0FD5F0E9E4CEFD22ED18
:10020A00F8F5F0EE8420D21CFEADF075F008EF2F61
:10021A00FFED33FD4007985006D5F0F222C398FD52
:05022A000FD5F0EA22EF
:0E022F00C3E49FFFE49EFEE49DFDE49CFC22E0
:1003110002023DE493A3F8E493A34003F68001F2C3
:1003210008DFF48029E493A3F85407240CC8C333ED
:10033100C4540F4420C8834004F456800146F6DFBC
:10034100E4800B0102040810204080900436E47E12
:10035100019360BCA3FF543F30E509541FFEE493B1
:10036100A360010ECF54C025E060A840B8E493A378
:10037100FAE493A3F8E493A3C8C582C8CAC583CAA3
:10038100F0A3C8C582C8CAC583CADFE9DEE780BE5B
:01043A0000C1
:00000001FF
