:1002DA00C0F9A4B0999282F88090BF010204081074
:0302EA0020408031
:10027D00071680828486888A8C070F8183858789FB
:0B028D008B8D070800350906120519CB
:0B02ED000000007F0B7EBEDEFEDFFC89
:0102F80022E3
:10029900D2A5C2A6D2A7C2B6E4F580C2A5C2A6D28B
:0702A900A7C2B67580FF2219
:1001B400C2A5D2A6D2A7C2B6E4F580D2A5D2A6D251
:1001C400A7C2B6ED9002DA93F580C2A5D2A6D2A753
:1001D400C2B6EF9002E593F5801202EDD2A5D2A645
:0801E400D2A7C2B67580FF220C
:10022400C293C297D293E4FEEF1392A3D297EFC383
:1002340013FFC2970EBE08F0E4FEED1392A3D2970B
:0C024400EDC313FDC2970EBE08F0C2937C
:01025000228B
:1001EC00E4FEC293C297D293FDC297EF1392A3D2AF
:1001FC0097EFC313FF0DBD08F0E4FDD297EEC313C8
:10020C00FEC29730A3034306800DBD08EEC293D205
:07021C0097C2A3D2A3AF06B5
:0102230022B8
:10025100E4FD7F8E1202247F811201ECEF30E7155D
:10026100E4FC74162CF8E6FF74082CF8E6FD120283
:0C027100240CBC07ED7D807F8E0202246F
:1002B000E4FC740F2CF8E6FF1201EC74082CF8A68D
:0502C000070CBC07ED76
:0102C5002216
:10000300E50AC4540F75F00AA4FFE50A540F7C00F7
:100013002FFFEC35F0FE7D0A12015FAD07E4FF12FE
:1000230001B4E50AC4540F75F00AA4FFE50A540F9E
:100033007C002FFFEC35F0FE7D0A12015F7F011279
:1000430001B47D0A7F021201B4E509C4540F75F0AF
:100053000AA4FFE509540F7C002FFFEC35F0FE12D4
:10006300015FAD077F031201B4E509C4540F75F0B6
:100073000AA4FFE509540F7C002FFFEC35F0FE7D49
:100083000A12015F7F041201B47D0A7F051201B4D5
:10009300E508C4540F75F00AA4FFE508540F7C006B
:1000A3002FFFEC35F0FE12015FAD077F061201B49E
:1000B300E508C4540F75F00AA4FFE508540F7C004B
:1000C3002FFFEC35F0FE7D0A12015F7F070201B4BA
:1002C6001202991202511202B0E4FB1200030BBB98
:0402D6001EF980F29B
:030000000200D328
:0C00D300787FE4F6D8FD75811C02011A4C
:10015F00BC000BBE0029EF8DF084FFADF022E4CC84
:10016F00F875F008EF2FFFEE33FEEC33FCEE9DEC4D
:10017F00984005FCEE9DFE0FD5F0E9E4CEFD22ED93
:10018F00F8F5F0EE8420D21CFEADF075F008EF2FDD
:10019F00FFED33FD4007985006D5F0F222C398FDCE
:0501AF000FD5F0EA226B
:1000DF000202C6E493A3F8E493A34003F68001F26F
:1000EF0008DFF48029E493A3F85407240CC8C33322
:1000FF00C4540F4420C8834004F456800146F6DFF1
:10010F00E4800B010204081020408090027DE47E01
:10011F00019360BCA3FF543F30E509541FFEE493E5
:10012F00A360010ECF54C025E060A840B8E493A3AC
:10013F00FAE493A3F8E493A3C8C582C8CAC583CAD7
:10014F00F0A3C8C582C8CAC583CADFE9DEE780BE8F
:010298000065
:00000001FF
