:0600FE000408FCF3CF3FF3
:0E00EF0000007F017EA27D59DDFEDEFCDFFAFF
:0100FD0022E0
:1000C800D2A5C2A6D2A7C2B6E4F580C2A5C2A6D25E
:0700D800A7C2B67580FF22EC
:0F00DF0074082FF8E6C2A5C2A6D2A7C2B6F58054
:0100EE0022EF
:10008F001200C843B00FE5B044F0FCF460F5120065
:10009F00EFEC44F02409601A24FC600F24FE600783
:1000AF001470E0E4FF80067F0180027F021200DF00
:0900BF0080D17F031200DF80CA2A
:03000000020003F8
:0C000300787FE4F6D8FD75810B02004AFE
:10000F0002008FE493A3F8E493A34003F68001F278
:10001F0008DFF48029E493A3F85407240CC8C333F2
:10002F00C4540F4420C8834004F456800146F6DFC1
:10003F00E4800B01020408102040809000FEE47E53
:10004F00019360BCA3FF543F30E509541FFEE493B6
:10005F00A360010ECF54C025E060A840B8E493A37D
:10006F00FAE493A3F8E493A3C8C582C8CAC583CAA8
:10007F00F0A3C8C582C8CAC583CADFE9DEE780BE60
:0101040000FA
:00000001FF
