:10006500C0F9A4B0999282F88090FF0102040810AB
:03007500204080A8
:08008F007F077E71DEFEDFFC3D
:010097002246
:10002000D2A5C2A6D2A7C2B6E4F580C2A5C2A6D206
:07003000A7C2B67580FF2294
:1000370074652FF58274003EF583E493D2A5D2A6AA
:06004700D2A7C2B6F5804D
:01004D002290
:0B008400C2A5D2A6D2A7C2B68F802270
:10000300AB07AA06E4FF120084AF03120037AF0563
:0D00130012008412008F7F0A7E0002003769
:10004E00120020E4FCECFF7E0090007093FD120085
:07005E00030CBC08F080EC6C
:0300000002007883
:0C007800787FE4F6D8FD75810702004E89
:00000001FF
