:10017E00C0F9A4B0999282F880908883C6A1868E29
:0301A4000108004F
:0A018E0000007F167E80DEFEDFFC1D
:010198002244
:10016700D2A5C2A6D2A7C2B6E4F580C2A5C2A6D2BE
:07017700A7C2B67580FF224C
:10014C00C2A5D2A6D2A7C2B67580FFD2A5D2A6D21E
:0B015C00A7C2B6EF90017E93F5802251
:10000300C2B0D2B3D2B2D2B1D2B4D2B5D2C2D2C4B8
:1000130020C405E4F508801620C205750801800E8A
:1000230020B505750802800620B403750803C2B124
:10003300D2B3D2B2D2B0D2B4D2B5D2C2D2C420C417
:1000430005750804801620C205750805800E20B5C5
:1000530005750806800620B403750807C2B2D2B33B
:10006300D2B1D2B0D2B4D2B5D2C2D2C420C40575F3
:100073000808801620C205750809800E20B505758D
:10008300080A800620B40375080BC2B3D2B2D2B1FA
:10009300D2B0D2B4D2B5D2C2D2C420C40575080C32
:1000A300801620C20575080D800E20B50575080E53
:0D00B300800620B40375080FAF0802014C51
:0B01990012016712000312018E80F8B3
:030000000200C03B
:0C00C000787FE4F6D8FD75810802010786
:1000CC00020199E493A3F8E493A34003F68001F2B0
:1000DC0008DFF48029E493A3F85407240CC8C33335
:1000EC00C4540F4420C8834004F456800146F6DF04
:1000FC00E4800B01020408102040809001A4E47EEF
:10010C00019360BCA3FF543F30E509541FFEE493F8
:10011C00A360010ECF54C025E060A840B8E493A3BF
:10012C00FAE493A3F8E493A3C8C582C8CAC583CAEA
:10013C00F0A3C8C582C8CAC583CADFE9DEE780BEA2
:0101A7000057
:00000001FF
