:1003E600C0F9A4B0999282F880904079243019120D
:0E03F600127800129CC60102040810204080FC
:0A043D00010A00010B000208000094
:0A04320000007F067E5DDEFEDFFCA9
:01043C00229D
:04047D007F03DFFE1C
:010481002258
:08045C007F077E71DEFEDFFC6C
:010464002275
:05047700007F19DFFE0B
:01047C00225D
:09044800007F057E81DEFEDFFC71
:010451002288
:080465007F017EA2DEFEDFFC38
:01046D00226C
:08046E007F067E26DEFEDFFCA6
:010476002263
:09045200007F017E86DEFEDFFC66
:01045B00227E
:10040400D2A5C2A6D2A7C2B6E4F580C2A5C2A6D21E
:07041400A7C2B67580FF22AC
:10036C00C2A5D2A6D2A7C2B6E4F580D2A5D2A6D297
:10037C00A7C2B6ED9003E693F580C2A5D2A6D2A78C
:10038C00C2B6EF9003FC93F58012045C120432D2D7
:0B039C00A5D2A6D2A7C2B67580FF2232
:10041B00D2D730D711C29412046ED294120465A2B3
:07042B009412044880EC224A
:0203C800AD077F
:1003CA00E4FBC294120477ED139294120465D2945A
:0B03DA00120477EDC313FD0BBB08E716
:0103E50022F5
:1003A700E4FDFCEDC313FDC29412047DD294120444
:1003B700773094034305801204520CBC08E5AF055F
:0103C7002213
:10032B0012041B7FCC1203C87F441203C83094FD08
:10033B0012041B7FCC1203C87FBE1203C81203A783
:10034B008F0B1203A78F0AEFAD0BFCE412010EE427
:10035B00FBFA79C878401200031201478E088F0907
:01036B00226F
:1002B70012040412032B120432AE08AF097C037D2B
:1002C700E81201C8AD077F0212036CAE08AF097CC4
:1002D700007D641201C87C007D0A1201C8ED240A62
:1002E700FD7F0312036CAE08AF097C007D64120129
:1002F700C87E007F0ACFCDCFCECCCE1201C8AD07C6
:100307007F0412036CAE08AF097C007D0A1201C896
:100317007F0512036C7D147F0612036C0D7F071295
:04032700036C808F54
:10000300EC4D6011E8497017ED33EC3304600DE4F7
:10001300FCFFFEFD22E933E8330470F80201B3125A
:10002300017E58046009E4CC24815006285009025B
:1000330001BD2840030201BAC0E0EB4A7044B98015
:1000430006D0E0FB0201A9EF4E701CBD8008EBFF58
:10005300EAFEE9FD80EBE98DF0A4FEE5F00200EC99
:10006300E9CDF9EAFEEBFFEF89F0A4FCE5F0CE89D8
:10007300F0A42EFFE435F0CD89F0A42DFEE435F095
:100083008067EF4E7005BD80D780C3EF8BF0A4ACC3
:10009300F0EE8BF0A42CFCE435F0F8EF8AF0A42CFE
:1000A300E5F038FCE433CB8DF0A42CFCE5F03BF811
:1000B300EE8AF0A42CFCE5F038F8E433CF89F0A401
:1000C3002CFCE5F038CF3400CE89F0A42FFFE5F007
:1000D3003EFEE433C98DF0A42EFEE5F039CD8AF05F
:1000E300A42FFFE5F03EFEE43DFD33D0E0FB5007D7
:1000F3000BBB000F0201BDEC2CFCEF33FFEE33FE14
:06010300ED33FD02019541
:1001090075F020800E75F010800575F0087D007E71
:10011900007F003392D530D50312021DEC33401015
:10012900EF33FFEE33FEED33FDEC33FCD5F0ED227A
:0E013900E5F0247EA2D513CC92E7CDCEFF22B6
:10014700EDD2E7CD33EC3392D524814006E4FFFEB0
:10015700FDFC22FCE4CFCECDCC24E0501174FF800F
:10016700EDC3CC13CCCD13CDCE13CECF13CF0470AC
:07017700F030D5DE02021D8D
:10017E00E9D2E7C933E833F892D5EDD2E7CD33ECC7
:07018E0033FC5002B2D52240
:10019500EC30E7100FBF000C0EBE00080DBD0004CB
:1001A5000BEB6014A2D5EB13FCED92E7FD2274FF77
:1001B500FCFDFEFF22E480F8A2D574FF13FC7D80D0
:0301C500E480EFE4
:0300000002022BCE
:0C022B00787FE4F6D8FD75810B020272AA
:1001C800BC000BBE0029EF8DF084FFADF022E4CC1B
:1001D800F875F008EF2FFFEE33FEEC33FCEE9DECE4
:1001E800984005FCEE9DFE0FD5F0E9E4CEFD22ED2A
:1001F800F8F5F0EE8420D21CFEADF075F008EF2F74
:10020800FFED33FD4007985006D5F0F222C398FD64
:050218000FD5F0EA2201
:0E021D00C3E49FFFE49EFEE49DFDE49CFC22F2
:100237000202B7E493A3F8E493A34003F68001F224
:1002470008DFF48029E493A3F85407240CC8C333C8
:10025700C4540F4420C8834004F456800146F6DF97
:10026700E4800B010204081020408090043DE47EE6
:10027700019360BCA3FF543F30E509541FFEE4938C
:10028700A360010ECF54C025E060A840B8E493A353
:10029700FAE493A3F8E493A3C8C582C8CAC583CA7E
:1002A700F0A3C8C582C8CAC583CADFE9DEE780BE36
:0104470000B4
:00000001FF
