:0C0125000A08C0F9A4B0999282F88090FA
:0E01160000007F017ED87D23DDFEDEFCDFFAD7
:0101240022B8
:10000300D2A5C2A6D2A7C2B6E4F580C2A5C2A6D223
:07001300A7C2B67580FF22B1
:1000D900759850538EBF538EFE53890F758BE875F3
:0700E9008DFFC2ABD28E2295
:03002300020104D3
:07010400C0D075D000C00758
:06010B00AF99C2988F12AB
:05011100D007D0D03240
:1000F000C2A5D2A6D2A7C2B67580FFD2A5D2A6D27B
:04010000A7C2B622BA
:1000B2001200031200D91200F0E51275F00A84AFA3
:1000C200F0E51275F00A8475F00AA42F24D8F8E638
:0700D200F58012011680E227
:03000000020026D5
:0C002600787FE4F6D8FD75811202006DB1
:100032000200B2E493A3F8E493A34003F68001F232
:1000420008DFF48029E493A3F85407240CC8C333CF
:10005200C4540F4420C8834004F456800146F6DF9E
:10006200E4800B0102040810204080900125E47E08
:10007200019360BCA3FF543F30E509541FFEE49393
:10008200A360010ECF54C025E060A840B8E493A35A
:10009200FAE493A3F8E493A3C8C582C8CAC583CA85
:1000A200F0A3C8C582C8CAC583CADFE9DEE780BE3D
:0101310000CD
:00000001FF
